:020000040800F2
:10000000002800202D1A0008491700085117000881
:100010005917000861170008691700080000000060
:100020000000000000000000000000007117000840
:100030007D170008000000008917000895170008C8
:10004000751A0008751A0008751A0008751A000854
:10005000751A0008751A0008751A0008751A000844
:10006000751A0008751A0008751A0008751A000834
:10007000751A0008751A0008751A0008751A000824
:10008000751A0008751A0008751A0008751A000814
:10009000751A0008751A0008751A0008751A000804
:1000A000751A0008751A0008751A0008751A0008F4
:1000B000A1170008751A000800000000751A000852
:1000C000751A00080000000000000000751A000802
:1000D00000000000B5170008751A000800000000B5
:1000E000751A0008751A0008751A0008000000004B
:1000F0000000000000000000000000000000000000
:0C01000000000000000000005FF808F1A3
:1001100010B5054C237833B9044B13B10448AFF341
:1001200000800123237010BDD401002000000000D6
:100130002473000808B5034B1BB103490348AFF310
:10014000008008BD00000000D801002024730008D2
:1001500010F8012B11F8013B012A28BF9A42F7D071
:10016000D01A7047034613F8012B002AFBD1181A46
:100170000138704781F0004102E000BF83F0004386
:1001800030B54FEA41044FEA430594EA050F08BF32
:1001900090EA020F1FBF54EA000C55EA020C7FEAF6
:1001A000645C7FEA655C00F0E2804FEA5454D4EB73
:1001B0005555B8BF6D420CDD2C4480EA020281EA3D
:1001C000030382EA000083EA010180EA020281EA75
:1001D0000303362D88BF30BD11F0004F4FEA0131C7
:1001E0004FF4801C4CEA113102D0404261EB4101D6
:1001F00013F0004F4FEA03334CEA133302D052425C
:1002000063EB430394EA050F00F0A780A4F1010417
:10021000D5F1200E0DDB02FA0EFC22FA05F2801851
:1002200041F1000103FA0EF2801843FA05F3594137
:100230000EE0A5F120050EF1200E012A03FA0EFCB6
:1002400028BF4CF0020C43FA05F3C01851EBE371E0
:1002500001F0004507D54FF0000EDCF1000C7EEBFD
:1002600000006EEB0101B1F5801F1BD3B1F5001F3B
:100270000CD349085FEA30004FEA3C0C04F101045A
:100280004FEA445212F5800F80F09A80BCF1004F83
:1002900008BF5FEA500C50F1000041EB045141EA05
:1002A000050130BD5FEA4C0C404141EB0101013CCE
:1002B00028BFB1F5801FE9D291F0000F04BF0146BD
:1002C0000020B1FA81F308BF2033A3F10B03B3F18F
:1002D00020020CDA0C3208DD02F1140CC2F10C021F
:1002E00001FA0CF021FA02F10CE002F11402D8BF7D
:1002F000C2F1200C01FA02F120FA0CFCDCBF41EA49
:100300000C019040E41AA2BF01EB0451294330BD17
:100310006FEA04041F3C1CDA0C340EDC04F11404F4
:10032000C4F1200220FA04F001FA02F340EA0300CB
:1003300021FA04F345EA030130BDC4F10C04C4F111
:10034000200220FA02F001FA04F340EA03002946F1
:1003500030BD21FA04F0294630BD94F0000F83F43B
:10036000801306BF81F480110134013D4EE77FEA1E
:10037000645C18BF7FEA655C29D094EA050F08BF6A
:1003800090EA020F05D054EA000C04BF194610464B
:1003900030BD91EA030F1EBF0021002030BD5FEA8F
:1003A000545C05D14000494128BF41F0004130BDB7
:1003B00014F580043CBF01F5801130BD01F000450B
:1003C00045F0FE4141F470014FF0000030BD7FEA7E
:1003D000645C1ABF194610467FEA655C1CBF0B4679
:1003E000024650EA013406BF52EA033591EA030F90
:1003F00041F4002130BD00BF90F0000F04BF002188
:10040000704730B54FF4806404F132044FF00005BA
:100410004FF0000150E700BF90F0000F04BF002133
:10042000704730B54FF4806404F1320410F0004599
:1004300048BF40424FF000013EE700BF42004FEA94
:10044000E2014FEA31014FEA02701FBF12F07F4311
:1004500093F07F4F81F06051704732F07F4208BFC8
:10046000704793F07F4F04BF41F40021704730B5CF
:100470004FF4607401F0004521F000411CE700BF1B
:1004800050EA010208BF704730B54FF000050AE09E
:1004900050EA010208BF704730B511F0004502D59F
:1004A000404261EB41014FF4806404F132045FEAA1
:1004B000915C3FF4D8AE4FF003025FEADC0C18BF4A
:1004C00003325FEADC0C18BF033202EBDC02C2F13C
:1004D000200300FA03FC20FA02F001FA03FE40EACE
:1004E0000E0021FA02F11444BDE600BF70B54FF0D2
:1004F000FF0C4CF4E06C1CEA11541DBF1CEA1355B0
:1005000094EA0C0F95EA0C0F00F0DEF82C4481EA17
:10051000030621EA4C5123EA4C5350EA013518BF37
:1005200052EA033541F4801143F4801338D0A0FB24
:1005300002CE4FF00005E1FB02E506F00042E0FBD1
:1005400003E54FF00006E1FB03569CF0000F18BFD7
:100550004EF0010EA4F1FF04B6F5007F64F540747F
:1005600004D25FEA4E0E6D4146EB060642EAC62112
:1005700041EA55514FEAC52040EA5E504FEACE2E7F
:10058000B4F1FD0C88BFBCF5E06F1ED8BEF1004F82
:1005900008BF5FEA500E50F1000041EB045170BDFE
:1005A00006F0004646EA010140EA020081EA030142
:1005B000B4EB5C04C2BFD4EB0C0541EA045170BD3E
:1005C00041F480114FF0000E013C00F3AB8014F1B8
:1005D000360FDEBF002001F0004170BDC4F1000401
:1005E000203C35DA0C341BDC04F11404C4F1200582
:1005F00000FA05F320FA04F001FA05F240EA0200DD
:1006000001F0004221F0004110EBD37021FA04F612
:1006100042EB06015EEA430E08BF20EAD37070BDCC
:10062000C4F10C04C4F1200500FA04F320FA05F02B
:1006300001FA04F240EA020001F0004110EBD3702D
:1006400041F100015EEA430E08BF20EAD37070BD9D
:10065000C4F1200500FA05F24EEA020E20FA04F376
:1006600001FA05F243EA020321FA04F001F0004125
:1006700021FA04F220EA020000EBD3705EEA430E96
:1006800008BF20EAD37070BD94F0000F0FD101F0C5
:100690000046400041EB010111F4801F08BF013CFE
:1006A000F7D041EA060195F0000F18BF704703F03C
:1006B0000046520043EB030313F4801F08BF013DC3
:1006C000F7D043EA0603704794EA0C0F0CEA13557F
:1006D00018BF95EA0C0F0CD050EA410618BF52EA39
:1006E0004306D1D181EA030101F000414FF000003F
:1006F00070BD50EA410606BF1046194652EA43064D
:1007000019D094EA0C0F02D150EA013613D195EAC0
:100710000C0F05D152EA03361CBF104619460AD108
:1007200081EA030101F0004141F0FE4141F4700112
:100730004FF0000070BD41F0FE4141F4780170BD02
:1007400070B54FF0FF0C4CF4E06C1CEA11541DBF67
:100750001CEA135594EA0C0F95EA0C0F00F0A7F869
:10076000A4EB050481EA030E52EA03354FEA013196
:1007700000F088804FEA03334FF0805545EA1313A9
:1007800043EA12634FEA022245EA111545EA106571
:100790004FEA00260EF000419D4208BF964244F108
:1007A000FD0404F5407402D25B084FEA3202B61A27
:1007B00065EB03055B084FEA32024FF480104FF4FB
:1007C000002CB6EB020E75EB030E22BFB61A75466F
:1007D00040EA0C005B084FEA3202B6EB020E75EB02
:1007E000030E22BFB61A754640EA5C005B084FEA6A
:1007F0003202B6EB020E75EB030E22BFB61A754637
:1008000040EA9C005B084FEA3202B6EB020E75EB41
:10081000030E22BFB61A754640EADC0055EA060E02
:1008200018D04FEA051545EA16754FEA06164FEA45
:10083000C30343EA52734FEAC2025FEA1C1CC0D1F1
:1008400011F4801F0BD141EA00014FF000004FF07E
:10085000004CB6E711F4801F04BF01430020B4F13F
:10086000FD0C88BFBCF5E06F3FF6AFAEB5EB030CF7
:1008700004BFB6EB020C5FEA500C50F1000041EBF4
:10088000045170BD0EF0004E4EEA113114EB5C04C1
:10089000C2BFD4EB0C0541EA045170BD41F4801194
:1008A0004FF0000E013C90E645EA060E8DE60CEA9C
:1008B000135594EA0C0F08BF95EA0C0F3FF43BAFB9
:1008C00094EA0C0F0AD150EA01347FF434AF95EA70
:1008D0000C0F7FF425AF104619462CE795EA0C0F54
:1008E00006D152EA03353FF4FDAE1046194622E721
:1008F00050EA410618BF52EA43067FF4C5AE50EAFB
:1009000041047FF40DAF52EA43057FF4EBAE12E7EA
:100910004FF0FF3C06E000BF4FF0010C02E000BFCB
:100920004FF0010C4DF804CD4FEA410C7FEA6C5CAE
:100930004FEA430C18BF7FEA6C5C1BD001B050EA51
:10094000410C0CBF52EA430C91EA030F02BF90EA3C
:10095000020F0020704710F1000F91EA030F58BFFB
:10096000994208BF90422CBFD8176FEAE37040F05D
:10097000010070474FEA410C7FEA6C5C02D150EAFB
:10098000013C07D14FEA430C7FEA6C5CD6D152EAB6
:10099000033CD3D05DF8040B704700BF844610467B
:1009A00062468C461946634600E000BF01B5FFF77A
:1009B000B7FF002848BF10F1000F01BD4DF808ED4A
:1009C000FFF7F4FF0CBF012000205DF808FB00BF1B
:1009D0004DF808EDFFF7EAFF34BF012000205DF875
:1009E00008FB00BF4DF808EDFFF7E0FF94BF0120C2
:1009F00000205DF808FB00BF4DF808EDFFF7CEFFC3
:100A000094BF012000205DF808FB00BF4DF808ED01
:100A1000FFF7C4FF34BF012000205DF808FB00BFD2
:100A20004FEA410C7FEA6C5C02D150EA013C0AD1EA
:100A30004FEA430C7FEA6C5C02D152EA033C02D1DC
:100A40004FF0000070474FF0010070474FEA41023D
:100A500012F5001215D211D56FF47873B3EB625210
:100A600012D94FEAC12343F0004343EA505311F037
:100A7000004F23FA02F018BF404270474FF00000C9
:100A8000704750EA013005D111F0004008BF6FF007
:100A9000004070474FF00000704700BF80B500AFC6
:100AA00018491948FFF754FB0346002B18D10022C0
:100AB0000021164800F08CFA154B1B78184600F000
:100AC0008DFB03461A46124B1A7040F6B832642169
:100AD000104800F07DFA03461A460D4B1A7010E0DC
:100AE0000D490948FFF734FB0346002B09D1084B99
:100AF0001B78184600F072FB03461A46044B1A7026
:100B000000BF80BD40730008F4010020111A0008E6
:100B1000F0010020DD1900084873000880B500AF1F
:100B20001B4B1B78002B0DD1194B1B781A46194B08
:100B30009B5C212B2AD1164B1B780133DAB2144B64
:100B40001A7023E0124B1B781A46124B9B5C232B26
:100B500012D1104A1049114804F0AEFA00220021C7
:100B60000F4800F035FA0A2200210A4804F007FB7A
:100B7000074B00221A7009E0054B1B78082B05D89B
:100B8000034B1B780133DAB2014B1A7000BF80BDF2
:100B9000620400205804002050730008F401002073
:100BA0009D0A000880B500AF2021024801F040FEF8
:100BB00000BF80BD0008014080B500AF00F05CFFC1
:100BC00000F030F800F032F900F07CF800F0B8F8EE
:100BD00000F002F901220D490D4802F0C0FF0D4856
:100BE00001F084F80C4802F053FB00F067F94FF471
:100BF0007A720021094800F0EBF90A220021084826
:100C000000F0E6F900F0CAF9FCE700BF5404002048
:100C1000780200200002002030020020A50B00080E
:100C2000B519000880B594B000AF07F12803282259
:100C30000021184604F0A3FA07F1140300221A60F9
:100C40005A609A60DA601A613B1D00221A605A608D
:100C50009A60DA600223BB620123BB631023FB634B
:100C600000237B6407F12803184601F0FBFD0346CF
:100C7000002B01D000F01BF90F237B610023BB6127
:100C80000023FB6100233B6200237B6207F1140316
:100C90000021184602F068F80346002B01D000F04E
:100CA00006F902237B600023FB603B1D184602F01F
:100CB000E9F90346002B01D000F0F9F800BF5037E6
:100CC000BD4680BD80B584B000AF3B1D00221A60D8
:100CD0005A609A60184B194A1A60174B00229A60A2
:100CE000154B01221A73144B00221A75124B4FF444
:100CF0006022DA61104B00225A600F4B01221A6108
:100D00000D4800F01BFF0346002B01D000F0CFF888
:100D100001237B600123BB600023FB603B1D194660
:100D2000054801F09DF80346002B01D000F0BFF804
:100D300000BF1037BD4680BD0002002000240140E6
:100D400080B586B000AF07F1080300221A605A6030
:100D50009A60DA603B4600221A605A601D4B4FF0E1
:100D600080421A601B4B41F63F725A60194B0022B9
:100D70009A60184B0922DA60164B00221A61154B53
:100D800000229A61134802F033FA0346002B01D087
:100D900000F08DF84FF48053BB6007F1080319464B
:100DA0000C4802F0B1FB0346002B01D000F07FF8A5
:100DB00000233B6000237B603B461946054802F058
:100DC00089FD0346002B01D000F071F800BF1837F1
:100DD000BD4680BD3002002080B500AF114B124AE5
:100DE0001A60104B4FF416525A600E4B00229A6054
:100DF0000C4B0022DA600B4B00221A61094B0C22CB
:100E00005A61084B00229A61064B0022DA610548BC
:100E100002F0CAFD0346002B01D000F048F800BFE5
:100E200080BD00BF780200200038014080B586B048
:100E300000AF07F1080300221A605A609A60DA6076
:100E4000114B9B69104A43F0040393610E4B9B695D
:100E500003F004037B607B68002220210B4801F033
:100E6000CFFC2023BB600123FB6000233B610223F6
:100E70007B6107F108031946044801F045FB00BFF8
:100E80001837BD4680BD00BF001002400008014079
:100E900080B582B000AF78607B681B68B3F1804F8B
:100EA00001D100F055F800BF0837BD4680BD80B4C1
:100EB00000AF72B600BF00BFFDE7000080B483B092
:100EC00000AF0023FB7137E0FA79204913469B00FD
:100ED00013449B000B4400221A60FA79FB79C3F19A
:100EE0001403D8B2194913469B0013449B000B44CA
:100EF000043302461A70FA79144913469B001344CE
:100F00009B000B44083300221A60FA790F491346FC
:100F10009B0013449B000B440C3300221A60FA79A7
:100F20000A4913469B0013449B000B4410330022D4
:100F30001A70FB790133FB71FB79132BC4D900BF05
:100F400000BF0C37BD4680BC704700BFC002002008
:100F500080B400AF104B1B68002B18D00E4B9B6861
:100F6000002B0CD00C4B9B680A2B05D90A4B9B68B5
:100F70000A3B094A936002E0074B00229A60064B45
:100F80009B68002B04D1044B01221A7400E000BFBF
:100F9000BD4680BC704700BFC002002080B500AFD6
:100FA0000A4B1B7C002B0FD0084B1B689847074B44
:100FB000DB68002B02D000F0AFF906E0034B1B7991
:100FC000184600F00BF900E000BF80BDC002002011
:100FD000B0B489B000AFF860B9607A607E4BD3F8E6
:100FE0007C31002B01D00023F1E07B4B93F8803162
:100FF0007B760023FB610023FB76E3E0FA7E7649F3
:1010000013469B0013449B000B4408331B68FA698A
:101010001344FB61FA69BB689A420AD8FA7E6E49AA
:1010200013469B0013449B000B441B68002B40F0AD
:10103000C6801323BB7617E0BB7E5A1EB97E664876
:101040000B469B000B449B001844634913469B00CE
:1010500013449B000B4404461D460FCD0FC42B6860
:101060002360BB7E013BBB76BA7EFB7E9A42E3D80F
:10107000FA7E594913469B0013449B000B44FA68BF
:101080001A60FA7E544913469B0013449B000B449C
:1010900004337A7E1A70FA7E4F4913469B0013443C
:1010A0009B000B440C337A681A60FA7E4A49134657
:1010B0009B0013449B000B44103300221A70FA6902
:1010C000BB689A4250D9FA69BB68D31A7B61FB7E30
:1010D0005A1C414913469B0013449B000B440833A0
:1010E00019687B69FA7EC91A3B4813469B00134472
:1010F0009B00034408331960FA7E374913469B006E
:1011000013449B000B4408331B68002B09D1FA7E63
:10111000314913469B0013449B000B4410330122BA
:101120001A70FB7E5A1C79692B4813469B001344A6
:101130009B00034408331960FB7E5A1C2649134662
:101140009B0013449B000B4408331B68002B2CD1DD
:10115000FB7E5A1C204913469B0013449B000B4402
:10116000103301221A7020E0FA7EB968FB69C91AAF
:10117000194813469B0013449B000344083319602D
:10118000FA7E154913469B0013449B000B44083319
:101190001B68002B09D1FA7E0F4913469B001344AC
:1011A0009B000B44103301221A70FA7E0A49134641
:1011B0009B0013449B000B4404331B7807E0FB7E29
:1011C0000133FB76FB7E132B7FF618AF0023184606
:1011D0002437BD46B0BC7047C0020020B0B485B013
:1011E00000AF0346FB710023FB7388E0FA7B49499B
:1011F00013469B0013449B000B441B68002B01D13A
:10120000002381E0FA7B434913469B0013449B0073
:101210000B4404331B78FA799A426DD1FA7B3D492D
:1012200013469B0013449B000B4404331B787B73D1
:10123000FB7B5A1C374913469B0013449B000B440D
:101240001B68002B1DD0FB7B5A1C324913469B00A8
:1012500013449B000B4408331968FA7B2D4813464E
:101260009B0013449B00034408331B68FA7B013244
:101270001944284813469B0013449B000344083339
:101280001960FB7BBB7317E0BB7B5A1CB97B214801
:101290000B469B000B449B0018441E4913469B00C1
:1012A00013449B000B4404461D460FCD0FC42B680E
:1012B0002360BB7B0133BB73BB7B122BE4D9154B83
:1012C0000022C3F87C21134A7B7B82F88031114BCA
:1012D0000022C3F884210F4B0022C3F888210D4B54
:1012E000002283F88C210B4BD3F87C31002B0CBFF0
:1012F00001230023DBB207E0FB7B0133FB73FB7BA5
:10130000132B7FF673AF002318461437BD46B0BCCD
:10131000704700BFC0020020B0B489B000AF964B48
:101320001B68002B01D1002320E1934B3C461D4656
:101330000FCD0FC42B6823600023FB610023FB76D5
:101340000FE1FB7E132B0AD0FB7E5A1C8A49134601
:101350009B0013449B000B441B68002B4AD1FA7E70
:101360003968854813469B0013449B000344196069
:10137000FA7E3879804913469B0013449B000B4446
:10138000043302461A70FA7EF9687B4813469B00C4
:1013900013449B0003440C331960FA7E76491346CC
:1013A0009B0013449B000B44103300221A70F96811
:1013B000FA7EFB69C91A704813469B0013449B00D0
:1013C000034408331960FA7E6B4913469B001344AB
:1013D0009B000B4408331B68002B09D1FA7E664939
:1013E00013469B0013449B000B44103301221A70D8
:1013F0000123BBE0FB7E5A1C5F4913469B0013444C
:101400009B000B4408331B68FA691344FB61FB68BB
:10141000FA699A4240F28D80FA7E3968564813463E
:101420009B0013449B0003441960FA7E38795249AB
:1014300013469B0013449B000B44043302461A706E
:10144000FA7EF9684C4813469B0013449B00034402
:101450000C331960FA7E484913469B0013449B00E5
:101460000B44103300221A70FB68FA69D31A7B61AF
:10147000FB7E5A1C404913469B0013449B000B44BF
:10148000083319687B69FA7EC91A3B4813469B00EA
:1014900013449B00034408331960FA7E364913460F
:1014A0009B0013449B000B4408331B68002B09D19D
:1014B000FA7E314913469B0013449B000B441033C2
:1014C00001221A70FB7E5A1C2B4913469B001344C1
:1014D0009B000B4408331968FA7E274813469B008B
:1014E00013449B00034408331B68FA7E0132C91A77
:1014F000214813469B0013449B00034408331960A2
:10150000FB7E5A1C1C4913469B0013449B000B4452
:1015100008331B68002B0AD1FB7E5A1C1649134660
:101520009B0013449B000B44103301221A700123CB
:101530001CE0FB7E5A1CF97E0F480B469B000B44B7
:101540009B0018440C4913469B0013449B000B441A
:1015500004461D460FCD0FC42B682360FB7E01336C
:10156000FB76FB7E132B7FF6ECAE00231846243768
:10157000BD46B0BC704700BFC002002080B485B03B
:1015800000AF154B9B69144A43F001039361124B62
:101590009B6903F00103BB60BB680F4BDB690E4A1C
:1015A00043F08053D3610C4BDB6903F080537B60C5
:1015B0007B680A4B5B68FB60FB6823F0E063FB60C1
:1015C000FB6843F08063FB60044AFB68536000BF24
:1015D0001437BD4680BC7047001002400000014037
:1015E00080B588B000AF786007F1100300221A6060
:1015F0005A609A60DA607B681B68144A934221D172
:10160000134B9B69124A43F400739361104B9B691F
:1016100003F40073FB60FB680D4B9B690C4A43F0BD
:10162000040393610A4B9B6903F00403BB60BB682E
:1016300002233B6103237B6107F110031946054830
:1016400000F062FF00BF2037BD4680BD002401408E
:10165000001002400008014080B584B000AF7860FF
:101660007B681B68B3F1804F13D10C4BDB690B4ACD
:1016700043F00103D361094BDB6903F00103FB6015
:10168000FB68002200211C2000F055FE1C2000F009
:101690006EFE00BF1037BD4680BD00BF0010024087
:1016A00080B588B000AF786007F1100300221A609F
:1016B0005A609A60DA607B681B68204A934239D18D
:1016C0001F4B9B691E4A43F4804393611C4B9B69EB
:1016D00003F48043FB60FB68194B9B69184A43F095
:1016E00004039361164B9B6903F00403BB60BB6862
:1016F0004FF400733B6102237B610323FB6107F11D
:10170000100319460F4800F0FFFE4FF480633B6161
:1017100000237B610023BB6107F1100319460948D0
:1017200000F0F2FE00220021252000F004FE25201A
:1017300000F01DFE00BF2037BD4680BD00380140CF
:10174000001002400008014080B400AF00BFFDE778
:1017500080B400AF00BFFDE780B400AF00BFFDE77D
:1017600080B400AF00BFFDE780B400AF00BFFDE76D
:1017700080B400AF00BFBD4680BC704780B400AFEE
:1017800000BFBD4680BC704780B400AF00BFBD46FF
:1017900080BC704780B500AF00F0B4F900BF80BDD9
:1017A00080B500AF024801F0BFFD00BF80BD00BFA3
:1017B0003002002080B500AF024802F0F5F900BF0A
:1017C00080BD00BF7802002080B400AF012318461E
:1017D000BD4680BC704780B582B000AF786039608C
:1017E00003F020FD034616221A604FF0FF3318461F
:1017F0000837BD4680BD80B582B000AF78604FF03D
:10180000FF317868FFF7E7FF00BFFDE780B586B0DE
:1018100000AFF860B9607A6000237B610AE0AFF343
:1018200000800146BB685A1CBA60CAB21A707B6954
:1018300001337B617A697B689A42F0DB7B681846EA
:101840001837BD4680BD80B586B000AFF860B9607E
:101850007A6000237B6109E0BB685A1CBA601B7880
:101860001846AFF300807B6901337B617A697B683E
:101870009A42F1DB7B6818461837BD4680BD80B4BC
:1018800083B000AF78604FF0FF3318460C37BD4689
:1018900080BC704780B483B000AF786039603B682B
:1018A0004FF400525A60002318460C37BD4680BCE6
:1018B000704780B483B000AF7860012318460C37BE
:1018C000BD4680BC704780B485B000AFF860B96099
:1018D0007A60002318461437BD4680BC704700006C
:1018E00080B586B000AF7860144A154BD31A7B617F
:1018F0007B693B61134B1B68002B02D1114B124AD1
:101900001A60104B1A687B6813443A699A4207D2EE
:1019100003F088FC03460C221A604FF0FF3309E005
:10192000084B1B68FB60074B1A687B681344054A29
:101930001360FB6818461837BD4680BD002800209C
:1019400000040000500400202006002080B400AFF6
:1019500000BFBD4680BC704780B582B000AF7860E4
:101960007B681B680D4A934214D10D4B1B781A46B5
:101970000C4B19780C4B99540C4B01221A703223E2
:10198000012208490A4802F05FF801220549084887
:1019900002F0E5F800BF0837BD4680BD00380140C1
:1019A0006204002054040020580400206304002036
:1019B0007802002080B500AF064B1B78012B07D1C1
:1019C000044B00221A70002200210348FFF700FB9D
:1019D00000BF80BD630400201D0B000880B500AF70
:1019E000074B1B681A460749074803F065FB034687
:1019F0009AB264230449054802F026F800BF80BD6E
:101A0000C8040020547300086404002078020020F9
:101A100080B500AF034800F017FA0346024A13608E
:101A200000BF80BD00020020C8040020FFF78EFF29
:101A30000B480C490C4A002302E0D458C45004332C
:101A4000C4188C42F9D3094A094C002301E0136001
:101A50000432A242FBD303F0EBFBFFF7ADF8704773
:101A600000000020D401002010770008D4010020DD
:101A70001C060020FEE7000080B500AF084B1B6885
:101A8000074A43F010031360032000F049FC0F20C5
:101A900000F008F8FFF772FD0023184680BD00BF74
:101AA0000020024080B582B000AF7860124B1A6807
:101AB000124B1B7819464FF47A73B3FBF1F3B2FB68
:101AC000F3F3184600F061FC0346002B01D001231C
:101AD0000EE07B680F2B0AD8002279684FF0FF30A8
:101AE00000F029FC064A7B681360002300E0012314
:101AF00018460837BD4680BD0000002008000020C1
:101B00000400002080B400AF054B1B781A46054B3B
:101B10001B681344034A136000BFBD4680BC704776
:101B200008000020CC04002080B400AF024B1B68EA
:101B30001846BD4680BC7047CC04002080B586B0F6
:101B400000AF78600023FB7500233B610023BB607E
:101B50000023FB607B68002B01D10123BEE07B6882
:101B60009B68002B7B689B6A002B09D17B68002255
:101B7000DA627B68002283F824207868FFF730FD62
:101B8000786800F0BFFA0346FB757B689B6A03F038
:101B90001003002B40F09980FB7D002B40F09580D6
:101BA0007B689B6A23F4885323F0020343F002020C
:101BB0007B689A627B685A687B68DB691A437B683A
:101BC0001B7B5B001343BA681343BB607B689B6855
:101BD000B3F5807F03D07B689B68012B02D14FF463
:101BE000807300E000233A6913433B617B681B7DEF
:101BF000012B19D17B681B7B002B09D17B689B696A
:101C0000013B5A033B69134343F400633B610BE020
:101C10007B689B6A43F020027B689A627B68DB6A80
:101C200043F001027B68DA627B681B685B6823F41F
:101C300069417B681B683A690A435A607B681B6884
:101C40009A68284B13407A681268B9680B4393600E
:101C50007B689B68B3F5807F03D07B689B68012B12
:101C600004D17B681B69013B1B05FB607B681B681B
:101C7000DB6A23F470017B681B68FA680A43DA6246
:101C80007B681B689A68184B1340BA689A420BD15C
:101C90007B680022DA627B689B6A23F0030343F0CF
:101CA00001027B689A6218E07B689B6A23F012034A
:101CB00043F010027B689A627B68DB6A43F00102A2
:101CC0007B68DA620123FB7507E07B689B6A43F05F
:101CD00010027B689A620123FB75FB7D184618375A
:101CE000BD4680BDFDF7E1FFFE0E1FFF80B584B04D
:101CF00000AF78600023FB737B6893F82430012BDE
:101D000001D1022398E07B68012283F824207868BF
:101D100000F09EF90346FB73FB7B002B40F08780AD
:101D20007B689B6A23F4407323F0010343F48072C1
:101D30007B689A627B681B68414A934205D1414B9C
:101D40005B6803F47023002B15D17B689B6A23F436
:101D500080127B689A627B681B685B6803F480630F
:101D6000002B26D07B689B6A23F4405343F48052B7
:101D70007B689A621DE07B689B6A43F480127B68F3
:101D80009A627B681B682F4A934204D07B681B6869
:101D90002B4A93420DD12B4B5B6803F48063002BDD
:101DA00007D07B689B6A23F4405343F480527B68DE
:101DB0009A627B689B6A03F48053002B06D07B6891
:101DC000DB6A23F006027B68DA6202E07B680022AD
:101DD000DA627B68002283F824207B681B686FF03E
:101DE00002021A607B681B689B6803F46023B3F5EA
:101DF000602F13D17B681B68114A934205D1114BA8
:101E00005B6803F47023002B08D17B681B689A6819
:101E10007B681B6842F4A0029A600CE07B681B6838
:101E20009A687B681B6842F480129A6003E07B68C2
:101E3000002283F82420FB7B18461037BD4680BD66
:101E4000002801400024014080B483B000AF7860D6
:101E50007B681B68DB6C18460C37BD4680BC70473E
:101E600080B485B000AF786039600023FB73002335
:101E7000BB607B6893F82430012B01D10223DCE0A6
:101E80007B68012283F824203B685B68062B1CD802
:101E90007B681B68596B3B685A6813469B00134468
:101EA000053B1F2202FA03F3DB4319403B68186825
:101EB0003B685A6813469B001344053B00FA03F243
:101EC0007B681B680A435A633CE03B685B680C2BE9
:101ED0001CD87B681B68196B3B685A6813469B00CB
:101EE0001344233B1F2202FA03F3DB4319403B68F0
:101EF00018683B685A6813469B001344233B00FA5A
:101F000003F27B681B680A431A631BE07B681B684B
:101F1000D96A3B685A6813469B001344413B1F2211
:101F200002FA03F3DB4319403B6818683B685A68C0
:101F300013469B001344413B00FA03F27B681B6885
:101F40000A43DA623B681B68092B1CD97B681B6853
:101F5000D9683B681A6813465B0013441E3B07228E
:101F600002FA03F3DB4319403B6898683B681A6840
:101F700013465B0013441E3B00FA03F27B681B68A8
:101F80000A43DA6019E07B681B6819693B681A68C4
:101F900013465B001344072202FA03F3DB431940A4
:101FA0003B6898683B681A6813465B00134400FA64
:101FB00003F27B681B680A431A613B681B68102B9D
:101FC00003D03B681B68112B32D17B681B681D4A0C
:101FD000934225D17B681B689B6803F40003002BA8
:101FE00026D17B681B689A687B681B6842F40002F4
:101FF0009A603B681B68102B1AD1134B1B68134A5D
:10200000A2FB03239A0C13469B0013445B00BB60A6
:1020100002E0BB68013BBB60BB68002BF9D107E065
:102020007B689B6A43F020027B689A620123FB7302
:102030007B68002283F82420FB7B18461437BD46BA
:1020400080BC7047002401400000002083DE1B4359
:1020500080B584B000AF78600023FB600023BB60D4
:102060007B681B689B6803F00103012B40D07B68F1
:102070001B689A687B681B6842F001029A601F4BDC
:102080001B681F4AA2FB03239B0CBB6002E0BB68DA
:10209000013BBB60BB68002BF9D1FFF745FDF86041
:1020A0001FE0FFF741FD0246FB68D31A022B18D947
:1020B0007B681B689B6803F00103012B11D07B68D0
:1020C0009B6A43F010027B689A627B68DB6A43F08C
:1020D00001027B68DA627B68002283F824200123F6
:1020E00007E07B681B689B6803F00103012BD8D1D4
:1020F000002318461037BD4680BD00BF00000020F9
:1021000083DE1B4380B584B000AF78600023FB60A2
:102110007B681B689B6803F00103012B2ED17B6851
:102120001B689A687B681B6822F001029A60FFF7BF
:10213000FBFCF8601BE0FFF7F7FC0246FB68D31AD4
:10214000022B14D97B681B689B6803F00103012BE9
:102150000DD17B689B6A43F010027B689A627B68B2
:10216000DB6A43F001027B68DA62012307E07B68E7
:102170001B689B6803F00103012BDCD00023184689
:102180001037BD4680BD000080B485B000AF7860D8
:102190007B6803F00703FB600C4BDB68BB60BA682D
:1021A0004FF6FF031340BB60FB681A02BB68134382
:1021B00043F0BF6343F40033BB60044ABB68D360A1
:1021C00000BF1437BD4680BC704700BF00ED00E083
:1021D00080B400AF044BDB681B0A03F0070318460A
:1021E000BD4680BC704700BF00ED00E080B483B006
:1021F00000AF0346FB7197F90730002B0BDBFB792F
:1022000003F01F02064997F907305B09012000FA25
:1022100002F241F8232000BF0C37BD4680BC704756
:1022200000E100E080B483B000AF03463960FB7189
:1022300097F90730002B0ADB3B68DAB20C4997F9B3
:1022400007301201D2B20B4483F800230AE03B6846
:10225000DAB20849FB7903F00F03043B1201D2B252
:102260000B441A7600BF0C37BD4680BC704700BFD8
:1022700000E100E000ED00E080B489B000AFF8605C
:10228000B9607A60FB6803F00703FB61FB69C3F187
:102290000703042B28BF0423BB61FB690433062B0F
:1022A00002D9FB69033B00E000237B614FF0FF3262
:1022B000BB6902FA03F3DA43BB681A407B699A40B0
:1022C0004FF0FF317B6901FA03F3D9437B680B4080
:1022D000134318462437BD4680BC704780B582B092
:1022E00000AF78607B68013BB3F1807F01D30123AD
:1022F0000FE00A4A7B68013B53600F214FF0FF302B
:10230000FFF790FF054B00229A60044B07221A60EA
:10231000002318460837BD4680BD00BF10E000E02E
:1023200080B582B000AF78607868FFF72DFF00BFFE
:102330000837BD4680BD80B586B000AF0346B960A2
:102340007A60FB7300237B61FFF742FF78617A6854
:10235000B9687869FFF790FF024697F90F30114688
:102360001846FFF75FFF00BF1837BD4680BD80B538
:1023700082B000AF0346FB7197F907301846FFF7AC
:1023800035FF00BF0837BD4680BD80B582B000AFC5
:1023900078607868FFF7A2FF034618460837BD4605
:1023A00080BD80B485B000AF78600023FB737B688C
:1023B00093F82130DBB2022B08D07B6804229A63A9
:1023C0007B68002283F82020012320E07B681B68C3
:1023D0001A687B681B6822F00E021A607B681B6813
:1023E0001A687B681B6822F001021A607B681A6C0D
:1023F0007B68DB6B012101FA02F25A607B680122E3
:1024000083F821207B68002283F82020FB7B18467C
:102410001437BD4680BC704780B584B000AF78608B
:102420000023FB737B6893F82130DBB2022B05D0CD
:102430007B6804229A630123FB7351E07B681B686D
:102440001A687B681B6822F00E021A607B681B68A2
:102450001A687B681B6822F001021A607B681B689F
:10246000224A934229D07B681B68214A934222D09A
:102470007B681B681F4A93421AD07B681B681E4A00
:10248000934212D07B681B681C4A93420AD07B6837
:102490001B681B4A934202D14FF480130EE04FF0A9
:1024A00080730BE04FF4803308E04FF4805305E075
:1024B0004FF4807302E0102300E00123114A5360BF
:1024C0007B68012283F821207B68002283F820208A
:1024D0007B685B6B002B03D07B685B6B78689847ED
:1024E000FB7B18461037BD4680BD00BF0800024088
:1024F0001C000240300002404400024058000240EC
:102500006C0002400000024080B48BB000AF7860E5
:10251000396000237B6200233B6261E101227B6A18
:1025200002FA03F3FB613B681B68FA691340BB6165
:10253000BA69FB699A4240F050813B685B68974AF0
:1025400093425ED0954A934275D8954A934258D0AB
:10255000934A93426FD8934A934252D0914A9342FE
:1025600069D8914A93424CD08F4A934263D88F4A9C
:10257000934246D08D4A93425DD8122B2AD8122B13
:1025800059D801A252F823F003260008DD250008DF
:10259000EF250008312600083726000837260008F6
:1025A0003726000837260008372600083726000897
:1025B0003726000837260008372600083726000887
:1025C000372600083726000837260008E5250008CA
:1025D000F9250008764A934213D02CE03B68DB686B
:1025E0003B6229E03B68DB6804333B6224E03B68E4
:1025F000DB6808333B621FE03B68DB680C333B62FF
:102600001AE03B689B68002B02D104233B6213E075
:102610003B689B68012B05D108233B627B68FA6904
:102620001A6109E008233B627B68FA695A6103E09A
:1026300000233B6200E000BFBB69FF2B01D87B6831
:1026400001E07B6804337B61BB69FF2B02D87B6AA6
:102650009B0002E07B6A083B9B003B617B691A6838
:102660000F213B6901FA03F3DB431A40396A3B69E6
:1026700001FA03F31A437B691A603B685B6803F055
:102680008053002B00F0A9804A4B9B69494A43F0D4
:1026900001039361474B9B6903F00103BB60BB6877
:1026A000454A7B6A9B08023352F82330FB607B6A01
:1026B00003F003039B000F2202FA03F3DB43FA68E3
:1026C0001340FB607B683D4A93420DD07B683C4AD7
:1026D000934207D07B683B4A934201D1022304E036
:1026E000032302E0012300E000237A6A02F00302E0
:1026F00092009340FA681343FB602F497B6A9B0862
:102700000233FA6841F823203B685B6803F48013C6
:10271000002B06D02C4B9A682B49BB6913438B6066
:1027200006E0294B9A68BB69DB43274913408B605D
:102730003B685B6803F40013002B06D0224BDA6879
:102740002149BB691343CB6006E01F4BDA68BB69C4
:10275000DB431D491340CB603B685B6803F40033E7
:10276000002B06D0184B5A681749BB6913434B60BE
:1027700006E0154B5A68BB69DB43134913404B60B5
:102780003B685B6803F48033002B1FD00E4B1A6844
:102790000D49BB6913430B601FE000BF00003210FE
:1027A0000000311000002210000021100000121063
:1027B000000011100010024000000140000801401C
:1027C000000C014000100140000401400B4B1A684E
:1027D000BB69DB43094913400B607B6A01337B62B1
:1027E0003B681A687B6A22FA03F3002B7FF496AEEB
:1027F00000BF00BF2C37BD4680BC704700040140BD
:1028000080B483B000AF78600B467B8013467B704A
:102810007B78002B03D07A887B681A6103E07B8881
:102820001A047B681A6100BF0C37BD4680BC704734
:1028300080B485B000AF78600B467B807B68DB6836
:10284000FB607A88FB6813401A04FB68D9437B88D5
:102850000B401A437B681A6100BF1437BD4680BC29
:102860007047000080B586B000AF78607B68002BB1
:1028700001D1012372E27B681B6803F00103002B86
:1028800000F08780924B5B6803F00C03042B0CD0A4
:102890008F4B5B6803F00C03082B12D18C4B5B68E9
:1028A00003F48033B3F5803F0BD1894B1B6803F4ED
:1028B0000033002B6CD07B685B68002B68D1012350
:1028C0004CE27B685B68B3F5803F06D1804B1B68A8
:1028D0007F4A43F4803313602EE07B685B68002BF3
:1028E0000CD17B4B1B687A4A23F480331360784BFE
:1028F0001B68774A23F4802313601DE07B685B68C4
:10290000B3F5A02F0CD1724B1B68714A43F480239E
:1029100013606F4B1B686E4A43F4803313600BE007
:102920006B4B1B686A4A23F480331360684B1B6847
:10293000674A23F4802313607B685B68002B13D005
:10294000FFF7F2F8386108E0FFF7EEF802463B695E
:10295000D31A642B01D9032300E25D4B1B6803F4F7
:102960000033002BF0D014E0FFF7DEF8386108E008
:10297000FFF7DAF802463B69D31A642B01D9032327
:10298000ECE1534B1B6803F40033002BF0D100E063
:1029900000BF7B681B6803F00203002B63D04C4B25
:1029A0005B6803F00C03002B0BD0494B5B6803F012
:1029B0000C03082B1CD1464B5B6803F48033002BBF
:1029C00016D1434B1B6803F00203002B05D07B6834
:1029D0001B69012B01D00123C0E13D4B1B6823F093
:1029E000F8027B685B69DB00394913430B603AE00E
:1029F0007B681B69002B20D0364B01221A60FFF741
:102A000093F8386108E0FFF78FF802463B69D31A64
:102A1000022B01D90323A1E12D4B1B6803F0020314
:102A2000002BF0D02A4B1B6823F0F8027B685B690F
:102A3000DB00274913430B6015E0264B00221A6088
:102A4000FFF772F8386108E0FFF76EF802463B695D
:102A5000D31A022B01D9032380E11D4B1B6803F01D
:102A60000203002BF0D17B681B6803F00803002BE6
:102A70003AD07B689B69002B19D0174B01221A6052
:102A8000FFF752F8386108E0FFF74EF802463B695D
:102A9000D31A022B01D9032360E10D4B5B6A03F0CB
:102AA0000203002BF0D0012000F0CEFA1CE00A4B0C
:102AB00000221A60FFF738F838610FE0FFF734F8AA
:102AC00002463B69D31A022B08D9032346E100BF13
:102AD000001002400000424280044242924B5B6A76
:102AE00003F00203002BE9D17B681B6803F00403A9
:102AF000002B00F0A6800023FB758B4BDB6903F0F5
:102B00008053002B0DD1884BDB69874A43F08053FB
:102B1000D361854BDB6903F08053BB60BB68012345
:102B2000FB75824B1B6803F48073002B18D17F4B1D
:102B30001B687E4A43F480731360FEF7F5FF38612B
:102B400008E0FEF7F1FF02463B69D31A642B01D976
:102B5000032303E1754B1B6803F48073002BF0D053
:102B60007B68DB68012B06D16F4B1B6A6E4A43F012
:102B7000010313622DE07B68DB68002B0CD16A4BEC
:102B80001B6A694A23F001031362674B1B6A664A9A
:102B900023F0040313621CE07B68DB68052B0CD177
:102BA000614B1B6A604A43F0040313625E4B1B6A6D
:102BB0005D4A43F0010313620BE05B4B1B6A5A4A08
:102BC00023F001031362584B1B6A574A23F0040396
:102BD00013627B68DB68002B15D0FEF7A5FF386118
:102BE0000AE0FEF7A1FF02463B69D31A41F28832A0
:102BF000934201D90323B1E04B4B1B6A03F002035C
:102C0000002BEED014E0FEF78FFF38610AE0FEF7EC
:102C10008BFF02463B69D31A41F28832934201D9B5
:102C200003239BE0404B1B6A03F00203002BEED111
:102C3000FB7D012B05D13C4BDB693B4A23F08053E4
:102C4000D3617B68DB69002B00F08780364B5B68C3
:102C500003F00C03082B61D07B68DB69022B46D1A3
:102C6000334B00221A60FEF75FFF386108E0FEF781
:102C70005BFF02463B69D31A022B01D903236DE0A7
:102C8000294B1B6803F00073002BF0D17B681B6A93
:102C9000B3F5803F08D1244B5B6823F400327B6896
:102CA0009B68214913434B601F4B5B6823F47412EC
:102CB0007B68196A7B685B6A0B431B4913434B6053
:102CC0001B4B01221A60FEF72FFF386108E0FEF768
:102CD0002BFF02463B69D31A022B01D903233DE0A7
:102CE000114B1B6803F00073002BF0D035E0104B44
:102CF00000221A60FEF718FF386108E0FEF714FFA3
:102D000002463B69D31A022B01D9032326E0064B66
:102D10001B6803F00073002BF0D11EE07B68DB69B9
:102D2000012B07D1012319E0001002400070004080
:102D3000600042420B4B5B68FB60FB6803F480322F
:102D40007B681B6A9A4206D1FB6803F470127B68A9
:102D50005B6A9A4201D0012300E00023184618372D
:102D6000BD4680BD0010024080B584B000AF7860E1
:102D700039607B68002B01D10123D0E06A4B1B68CE
:102D800003F007033A689A4210D9674B1B6823F097
:102D9000070265493B6813430B60634B1B6803F0F4
:102DA00007033A689A4201D00123B8E07B681B68A8
:102DB00003F00203002B20D07B681B6803F00403A0
:102DC000002B05D0594B5B68584A43F4E0635360CD
:102DD0007B681B6803F00803002B05D0534B5B682E
:102DE000524A43F460535360504B5B6823F0F00247
:102DF0007B689B684D4913434B607B681B6803F0FD
:102E00000103002B40D07B685B68012B07D1474B47
:102E10001B6803F40033002B15D101237FE07B688E
:102E20005B68022B07D1414B1B6803F00073002B3A
:102E300009D1012373E03D4B1B6803F00203002B13
:102E400001D101236BE0394B5B6823F003027B68FF
:102E50005B68364913434B60FEF766FEF8600AE094
:102E6000FEF762FE0246FB68D31A41F288329342B3
:102E700001D9032353E02D4B5B6803F00C027B6800
:102E80005B689B009A42EBD1274B1B6803F007035A
:102E90003A689A4210D2244B1B6823F00702224959
:102EA0003B6813430B60204B1B6803F007033A6831
:102EB0009A4201D0012332E07B681B6803F00403CF
:102EC000002B08D0194B5B6823F4E0627B68DB6859
:102ED000164913434B607B681B6803F00803002B03
:102EE00009D0124B5B6823F460527B681B69DB00DE
:102EF0000E4913434B6000F021F802460B4B5B6810
:102F00001B0903F00F030A49CB5C22FA03F3094AB9
:102F10001360094B1B681846FEF7C4FD00231846D2
:102F20001037BD4680BD00BF0020024000100240A7
:102F300064730008000000200400002080B487B003
:102F400000AF0023FB600023BB6000237B610023F4
:102F50007B6000233B611E4B5B68FB60FB6803F0FA
:102F60000C03042B02D0082B03D027E0194B3B6144
:102F700027E0FB689B0C03F00F03174AD35C7B60D0
:102F8000FB6803F48033002B10D0114B5B685B0CA3
:102F900003F00103114AD35CBB607B680D4A03FB5D
:102FA00002F2BB68B2FBF3F37B6104E07B680C4A7E
:102FB00002FB03F37B617B693B6102E0054B3B61F4
:102FC00000BF3B6918461C37BD4680BC704700BF38
:102FD0000010024000127A007C7300088C73000815
:102FE00000093D0080B400AF024B1B681846BD4687
:102FF00080BC70470000002080B500AFFFF7F2FFF3
:103000000246054B5B681B0A03F007030349CB5CD0
:1030100022FA03F3184680BD0010024074730008C2
:1030200080B500AFFFF7DEFF0246054B5B68DB0AA9
:1030300003F007030349CB5C22FA03F3184680BD73
:10304000001002407473000880B485B000AF78604F
:103050000A4B1B680A4AA2FB03235B0A7A6802FB3D
:1030600003F3FB6000BFFB685A1EFA60002BF9D126
:1030700000BF00BF1437BD4680BC70470000002071
:10308000D34D621080B586B000AF786000233B61FD
:103090000023FB607B681B6803F00103002B7DD0DD
:1030A0000023FB754F4BDB6903F08053002B0DD1E0
:1030B0004C4BDB694B4A43F08053D361494BDB698E
:1030C00003F08053BB60BB680123FB75464B1B6854
:1030D00003F48073002B18D1434B1B68424A43F41E
:1030E00080731360FEF720FD386108E0FEF71CFDD9
:1030F00002463B69D31A642B01D903236DE03A4B96
:103100001B6803F48073002BF0D0364B1B6A03F46A
:103110004073FB60FB68002B2ED07B685B6803F478
:103120004073FA689A4227D02E4B1B6A23F44073EF
:10313000FB602E4B01221A602C4B00221A60294A98
:10314000FB681362FB6803F00103002B14D0FEF749
:10315000EBFC38610AE0FEF7E7FC02463B69D31A54
:1031600041F28832934201D9032336E01D4B1B6A9A
:1031700003F00203002BEED01A4B1B6A23F44072BB
:103180007B685B68174913430B62FB7D012B05D1FC
:10319000144BDB69134A23F08053D3617B681B68AF
:1031A00003F00203002B08D00E4B5B6823F440426F
:1031B0007B689B680B4913434B607B681B6803F07B
:1031C0001003002B08D0074B5B6823F480027B6858
:1031D000DB68044913434B60002318461837BD468B
:1031E00080BD00BF00100240007000404004424219
:1031F00080B582B000AF78607B68002B01D10123DD
:1032000041E07B6893F83D30DBB2002B06D17B6850
:10321000002283F83C207868FEF71EFA7B680222C1
:1032200083F83D207B681A687B6804331946104692
:1032300000F056FA7B68012283F846207B68012261
:1032400083F83E207B68012283F83F207B680122BF
:1032500083F840207B68012283F841207B680122AB
:1032600083F842207B68012283F843207B68012297
:1032700083F844207B68012283F845207B68012283
:1032800083F83D20002318460837BD4680BD000066
:1032900080B485B000AF78607B6893F83D30DBB2D6
:1032A000012B01D0012335E07B68022283F83D2009
:1032B0007B681B68DA687B681B6842F00102DA6091
:1032C0007B681B68164A934209D07B681B68B3F180
:1032D000804F04D07B681B68124A934211D17B68EF
:1032E0001B689B6803F00703FB60FB68062B10D08C
:1032F0007B681B681A687B681B6842F001021A60D1
:1033000007E07B681B681A687B681B6842F0010253
:103310001A60002318461437BD4680BC704700BFB2
:10332000002C01400004004080B584B000AF7860FC
:103330007B681B68DB68FB607B681B681B69BB6084
:10334000BB6803F00203002B20D0FB6803F00203EC
:10335000002B1BD07B681B686FF002021A617B6830
:1033600001221A777B681B689B6903F00303002B1B
:1033700003D0786800F098F905E0786800F08BF9E0
:10338000786800F09AF97B6800221A77BB6803F02E
:103390000403002B20D0FB6803F00403002B1BD098
:1033A0007B681B686FF004021A617B6802221A773F
:1033B0007B681B689B6903F44073002B03D078681B
:1033C00000F072F905E0786800F065F9786800F0BF
:1033D00074F97B6800221A77BB6803F00803002B9E
:1033E00020D0FB6803F00803002B1BD07B681B6810
:1033F0006FF008021A617B6804221A777B681B68E9
:10340000DB6903F00303002B03D0786800F04CF96C
:1034100005E0786800F03FF9786800F04EF97B68C5
:1034200000221A77BB6803F01003002B20D0FB6842
:1034300003F01003002B1BD07B681B686FF0100299
:103440001A617B6808221A777B681B68DB6903F4C2
:103450004073002B03D0786800F026F905E0786807
:1034600000F019F9786800F028F97B6800221A77D3
:10347000BB6803F00103002B0CD0FB6803F00103D1
:10348000002B07D07B681B686FF001021A61786817
:10349000FDF7FEFCBB6803F08003002B0CD0FB683B
:1034A00003F08003002B07D07B681B686FF080025D
:1034B0001A61786800F06FFABB6803F04003002BD4
:1034C0000CD0FB6803F04003002B07D07B681B681F
:1034D0006FF040021A61786800F0F8F8BB6803F0FA
:1034E0002003002B0CD0FB6803F02003002B07D037
:1034F0007B681B686FF020021A61786800F042FA5E
:1035000000BF1037BD4680BD80B584B000AF786085
:1035100039600023FB737B6893F83C30012B01D1A9
:103520000223B4E07B68012283F83C207B680222FE
:1035300083F83D207B681B689B68BB60BB6823F0F9
:103540007703BB60BB6823F47F43BB607B681B6869
:10355000BA689A603B681B68B3F5005F3ED0B3F56C
:10356000005F00F28780B3F5805F00F08680B3F5DE
:10357000805F7FD8702B1AD0702B7BD8602B50D0F7
:10358000602B77D8502B3CD0502B73D8402B58D081
:10359000402B6FD8302B64D0302B6BD8202B60D0D1
:1035A000202B67D8002B5CD0102B5AD062E07B68B0
:1035B00018683B6899683B685A683B68DB6800F0AC
:1035C0006AF97B681B689B68BB60BB6843F0770344
:1035D000BB607B681B68BA689A604FE07B681868BC
:1035E0003B6899683B685A683B68DB6800F053F9B0
:1035F0007B681B689A687B681B6842F480429A600B
:103600003CE07B6818683B6859683B68DB681A4691
:1036100000F0CAF87B681B685021184600F021F9B9
:103620002CE07B6818683B6859683B68DB681A4681
:1036300000F0E8F87B681B686021184600F011F97B
:103640001CE07B6818683B6859683B68DB681A4671
:1036500000F0AAF87B681B684021184600F001F9C9
:103660000CE07B681A683B681B681946104600F03E
:10367000F8F803E00123FB7300E000BF7B68012240
:1036800083F83D207B68002283F83C20FB7B1846B2
:103690001037BD4680BD80B483B000AF786000BFF6
:1036A0000C37BD4680BC704780B483B000AF7860F3
:1036B00000BF0C37BD4680BC704780B483B000AFFC
:1036C000786000BF0C37BD4680BC704780B483B0C3
:1036D00000AF786000BF0C37BD4680BC704700006B
:1036E00080B485B000AF786039607B681B68FB6090
:1036F0007B682B4A934207D07B68B3F1804F03D09D
:103700007B68284A934208D1FB6823F07003FB6072
:103710003B685B68FA681343FB607B68204A93420E
:1037200007D07B68B3F1804F03D07B681D4A93427A
:1037300008D1FB6823F44073FB603B68DB68FA68E0
:103740001343FB60FB6823F080023B685B69134313
:10375000FB607B68FA681A603B689A687B68DA628B
:103760003B681A687B689A627B680D4A934203D172
:103770003B681A697B681A637B6801225A617B681F
:103780001B6903F00103002B05D07B681B6923F044
:1037900001027B681A6100BF1437BD4680BC7047C8
:1037A000002C01400004004080B487B000AFF860F6
:1037B000B9607A60FB681B6A7B61FB681B6A23F057
:1037C0000102FB681A62FB689B693B613B6923F05D
:1037D000F0033B617B681B013A6913433B617B69E2
:1037E00023F00A037B617A69BB6813437B61FB6842
:1037F0003A699A61FB687A691A6200BF1C37BD4654
:1038000080BC704780B487B000AFF860B9607A6060
:10381000FB681B6A7B61FB681B6A23F01002FB6874
:103820001A62FB689B693B613B6923F470433B610F
:103830007B681B033A6913433B617B6923F0A00358
:103840007B61BB681B017A6913437B61FB683A6942
:103850009A61FB687A691A6200BF1C37BD4680BC5A
:10386000704780B485B000AF786039607B689B6832
:10387000FB60FB6823F07003FB603A68FB6813434E
:1038800043F00703FB607B68FA689A6000BF143757
:10389000BD4680BC704780B487B000AFF860B960A7
:1038A0007A603B60FB689B687B617B6923F47F43A4
:1038B0007B613B681A027B681A43BB6813437A69D1
:1038C00013437B61FB687A699A6000BF1C37BD4671
:1038D00080BC704780B485B000AF786039607B6889
:1038E00093F83C30012B01D1022341E07B68012297
:1038F00083F83C207B68022283F83D207B681B68AC
:103900005B68FB607B681B689B68BB60FB6823F09F
:103910007003FB603B681B68FA681343FB607B68BD
:103920001B68FA685A607B681B68144A934209D086
:103930007B681B68B3F1804F04D07B681B68104A1A
:1039400093420CD1BB6823F08003BB603B685B688B
:10395000BA681343BB607B681B68BA689A607B686F
:10396000012283F83D207B68002283F83C2000235D
:1039700018461437BD4680BC704700BF002C01407C
:103980000004004080B483B000AF786000BF0C3703
:10399000BD4680BC704780B483B000AF786000BF84
:1039A0000C37BD4680BC704780B582B000AF7860F0
:1039B0007B68002B01D1012342E07B6893F8413002
:1039C000DBB2002B06D17B68002283F840207868A8
:1039D000FDF766FE7B68242283F841207B681B6824
:1039E000DA687B681B6822F40052DA60786800F0BD
:1039F000B7FD7B681B681A697B681B6822F49042DC
:103A00001A617B681B685A697B681B6822F02A026E
:103A10005A617B681B68DA687B681B6842F4005255
:103A2000DA607B6800225A647B68202283F8412098
:103A30007B68202283F842207B6800225A6300239F
:103A400018460837BD4680BD80B58AB002AFF86021
:103A5000B9603B601346FB8000237B61FB6893F8F1
:103A60004130DBB2202B75D1BB68002B02D0FB8824
:103A7000002B01D101236EE0FB6800225A64FB6831
:103A8000212283F84120FEF74FF87861FB68FA881D
:103A90009A84FB68FA88DA84FB689B68B3F5805FD8
:103AA00008D1FB681B69002B04D10023FB61BB68B4
:103AB000BB6103E0BB68FB610023BB612EE03B6898
:103AC00000937B6900228021F86800F01CFB03460C
:103AD000002B05D0FB68202283F8412003233AE025
:103AE000FB69002B0BD1BB691B881A46FB681B685E
:103AF000C2F308025A60BB690233BB6107E0FB698D
:103B00001A78FB681B685A60FB690133FB61FB682C
:103B1000DB8C9BB2013B9AB2FB68DA84FB68DB8CDE
:103B20009BB2002BCBD13B6800937B6900224021E4
:103B3000F86800F0E8FA0346002B05D0FB68202265
:103B400083F84120032306E0FB68202283F841200C
:103B5000002300E0022318462037BD4680BD80B513
:103B600084B000AFF860B9601346FB80FB6893F83F
:103B70004230DBB2202B12D1BB68002B02D0FB8875
:103B8000002B01D101230BE0FB6800221A63FB88A4
:103B90001A46B968F86800F00FFB034600E00223FC
:103BA00018461037BD4680BD80B5BAB000AF78600A
:103BB0007B681B681B68C7F8E4307B681B68DB68A0
:103BC000C7F8E0307B681B685B69C7F8DC3000230E
:103BD000C7F8D8300023C7F8D430D7F8E43003F062
:103BE0000F03C7F8D830D7F8D830002B0FD1D7F84B
:103BF000E43003F02003002B09D0D7F8E03003F0C5
:103C00002003002B03D0786800F0ECFB5BE2D7F8D0
:103C1000D830002B00F0DE80D7F8DC3003F0010351
:103C2000002B06D1D7F8E03003F49073002B00F09E
:103C3000D180D7F8E43003F00103002B0BD0D7F884
:103C4000E03003F48073002B05D07B685B6C43F09D
:103C500001027B685A64D7F8E43003F00403002BB8
:103C60000BD0D7F8DC3003F00103002B05D07B68C4
:103C70005B6C43F002027B685A64D7F8E43003F0CF
:103C80000203002B0BD0D7F8DC3003F00103002B2C
:103C900005D07B685B6C43F004027B685A64D7F8FC
:103CA000E43003F00803002B11D0D7F8E03003F024
:103CB0002003002B05D1D7F8DC3003F00103002BE3
:103CC00005D07B685B6C43F008027B685A647B68B4
:103CD0005B6C002B00F0F281D7F8E43003F0200396
:103CE000002B08D0D7F8E03003F02003002B02D0DF
:103CF000786800F077FB7B681B685B6903F0400322
:103D0000002B14BF01230023DBB2C7F8D4307B683B
:103D10005B6C03F00803002B03D1D7F8D430002BE1
:103D20004FD0786800F081FA7B681B685B6903F00C
:103D30004003002B41D07B681B681433C7F89C30CC
:103D4000D7F89C3053E8003FC7F89830D7F8983040
:103D500023F04003C7F8D0307B681B681433D7F8D2
:103D6000D020C7F8A820C7F8A430D7F8A410D7F8F7
:103D7000A82041E80023C7F8A030D7F8A030002BD6
:103D8000D9D17B68DB6B002B13D07B68DB6B7E4A61
:103D90005A637B68DB6B1846FEF73EFB0346002B3D
:103DA00016D07B68DB6B5B6B7A68D26B10469847EA
:103DB0000EE0786800F093F90AE0786800F08FF977
:103DC00006E0786800F08BF97B6800225A6475E1A0
:103DD00000BF73E17B681B6B012B40F04F81D7F86C
:103DE000E43003F01003002B00F04881D7F8E030F6
:103DF00003F01003002B00F041810023BB607B68BF
:103E00001B681B68BB607B681B685B68BB60BB682A
:103E10007B681B685B6903F04003002B00F0B680F1
:103E20007B68DB6B1B685B68A7F8BE30B7F8BE30F9
:103E3000002B00F045817B689B8DB7F8BE209A422D
:103E400080F03E817B68B7F8BE20DA857B68DB6B4B
:103E50009B69202B00F088807B681B680C33C7F8B7
:103E60008830D7F8883053E8003FC7F88430D7F857
:103E7000843023F48073C7F8B8307B681B680C3338
:103E8000D7F8B820C7F89420C7F89030D7F890102A
:103E9000D7F8942041E80023C7F88C30D7F88C304D
:103EA000002BD9D17B681B6814337B677B6F53E889
:103EB000003F3B673B6F23F00103C7F8B4307B68DA
:103EC0001B681433D7F8B420C7F88020FB67F96F5C
:103ED000D7F8802041E80023BB67BB6F002BE1D1FE
:103EE0007B681B6814333B663B6E53E8003FFB6501
:103EF000FB6D23F04003C7F8B0307B681B681433B8
:103F0000D7F8B020FA66BB66B96EFA6E41E80023B6
:103F10007B667B6E002BE3D17B68202283F84220F6
:103F20007B6800221A637B681B680C33FB64FB6CA4
:103F300053E8003FBB64BB6C23F01003C7F8AC3000
:103F40007B681B680C33D7F8AC20BA657B65796D4C
:103F5000BA6D41E800233B653B6D002BE3D17B68E4
:103F6000DB6B1846FEF71DFA7B6802225A637B68FA
:103F70009A8D7B68DB8D9BB2D31A9BB21946786809
:103F800000F0B6F89CE000BFEF4200087B689A8D15
:103F90007B68DB8D9BB2D31AA7F8CE307B68DB8DB4
:103FA0009BB2002B00F08E80B7F8CE30002B00F0D3
:103FB00089807B681B680C33BB63BB6B53E8003F95
:103FC0007B637B6B23F49073C7F8C8307B681B68F6
:103FD0000C33D7F8C8207A643B64396C7A6C41E8BA
:103FE0000023FB63FB6B002BE3D17B681B6814335E
:103FF0007B627B6A53E8003F3B623B6A23F001032C
:10400000C7F8C4307B681B681433D7F8C4203A6300
:10401000FB62F96A3A6B41E80023BB62BB6A002B82
:10402000E3D17B68202283F842207B6800221A6358
:104030007B681B680C333B613B6953E8003FFB60C6
:10404000FB6823F01003C7F8C0307B681B680C3393
:10405000D7F8C020FA61BB61B969FA6941E8002369
:104060007B617B69002BE3D17B6802225A63B7F83E
:10407000CE301946786800F03BF823E0D7F8E430FA
:1040800003F08003002B09D0D7F8E03003F0800361
:10409000002B03D0786800F03EF914E0D7F8E43044
:1040A00003F04003002B0ED0D7F8E03003F04003BC
:1040B000002B08D0786800F07DF904E000BF02E032
:1040C00000BF00E000BFE837BD4680BD80B483B0CC
:1040D00000AF786000BF0C37BD4680BC704780B42D
:1040E00083B000AF786000BF0C37BD4680BC70471E
:1040F00080B483B000AF78600B467B8000BF0C3784
:10410000BD4680BC704780B586B000AFF860B9602E
:104110003B601346FB713BE03B6AB3F1FF3F37D096
:10412000FDF702FD02463B68D31A3A6A9A4202D36F
:104130003B6A002B01D103233AE0FB681B68DB6874
:1041400003F00403002B23D0BB68802B20D0BB6876
:10415000402B1DD0FB681B681B6803F00803082B6D
:1041600016D100237B61FB681B681B687B61FB68C1
:104170001B685B687B617B69F86800F056F8FB6838
:1041800008225A64FB68002283F8402001230FE0D4
:10419000FB681B681A68BB681340BA689A420CBF78
:1041A00001230023DBB21A46FB799A42B4D00023E4
:1041B00018461837BD4680BD80B485B000AFF860A2
:1041C000B9601346FB80FB68BA689A62FB68FA889C
:1041D0009A85FB68FA88DA85FB6800225A64FB68D6
:1041E000222283F84220FB681B69002B07D0FB6862
:1041F0001B68DA68FB681B6842F48072DA60FB684F
:104200001B685A69FB681B6842F001025A61FB682F
:104210001B68DA68FB681B6842F02002DA60002342
:1042200018461437BD4680BC704780B495B000AFC7
:1042300078607B681B680C337B637B6B53E8003FC3
:104240003B633B6B23F49073FB647B681B680C330C
:10425000FA6C3A64FB63F96B3A6C41E80023BB6388
:10426000BB6B002BE5D17B681B6814333B623B6A58
:1042700053E8003FFB61FB6923F00103BB647B68EB
:104280001B681433BA6CFA62BB62B96AFA6A41E815
:1042900000237B627B6A002BE5D17B681B6B012BC3
:1042A00019D17B681B680C33FB60FB6853E8003F47
:1042B000BB60BB6823F010037B647B681B680C3316
:1042C0007A6CBA617B617969BA6941E800233B6124
:1042D0003B69002BE5D17B68202283F842207B6874
:1042E00000221A6300BF5437BD4680BC704780B5BA
:1042F00084B000AF78607B685B6AFB60FB6800227B
:10430000DA85FB680022DA84F868FFF7E8FE00BF70
:104310001037BD4680BD80B485B000AF78607B6843
:1043200093F84130DBB2212B3ED17B689B68B3F51B
:10433000805F14D17B681B69002B10D17B681B6ADE
:10434000FB60FB681B881A467B681B68C2F3080287
:104350005A607B681B6A9A1C7B681A6208E07B685B
:104360001B6A591C7A6811621A787B681B685A604C
:104370007B68DB8C9BB2013B9BB27A681946D18487
:10438000002B0FD17B681B68DA687B681B6822F002
:104390008002DA607B681B68DA687B681B6842F021
:1043A0004002DA60002300E0022318461437BD46BD
:1043B00080BC704780B582B000AF78607B681B68B6
:1043C000DA687B681B6822F04002DA607B68202292
:1043D00083F841207868FFF779FE002318460837F4
:1043E000BD4680BD80B58CB000AF78607B6893F827
:1043F0004230DBB2222B40F0AE807B689B68B3F585
:10440000805F17D17B681B69002B13D10023FB62EF
:104410007B689B6ABB627B681B685B689BB2C3F36B
:1044200008039AB2BB6A1A807B689B6A9A1C7B68F5
:104430009A6226E07B689B6AFB620023BB627B6812
:104440009B68B3F5805F07D07B689B68002B0AD11F
:104450007B681B69002B06D17B681B685B68DAB23E
:10446000FB6A1A7008E07B681B685B68DBB203F0CC
:104470007F03DAB2FB6A1A707B689B6A5A1C7B68FE
:104480009A627B68DB8D9BB2013B9BB27A681946CE
:10449000D185002B5DD17B681B68DA687B681B685F
:1044A00022F02002DA607B681B68DA687B681B6890
:1044B00022F48072DA607B681B685A697B681B682B
:1044C00022F001025A617B68202283F842207B6837
:1044D00000225A637B681B6B012B35D17B6800225D
:1044E0001A637B681B680C337B617B6953E8003F70
:1044F0003B613B6923F010037B627B681B680C33D4
:104500007A6A3A62FB61F9693A6A41E80023BB6161
:10451000BB69002BE5D17B681B681B6803F01003A7
:10452000102B0AD10023FB607B681B681B68FB60B3
:104530007B681B685B68FB60FB687B689B8D19462A
:104540007868FFF7D5FD02E07868FDF705FA0023EB
:1045500002E0002300E0022318463037BD4680BD4C
:1045600080B584B000AF78607B681B681B6923F45A
:1045700040517B68DA687B681B680A431A617B6874
:104580009A687B681B691A437B685B691343BB604D
:104590007B681B68DB6823F4B05323F00C037A6854
:1045A0001268B9680B43D3607B681B685B6923F4AE
:1045B00040717B689A697B681B680A435A617B6813
:1045C0001B682C4A934203D1FEF72AFDF86002E0F3
:1045D000FEF712FDF860FA6813469B0013449A0038
:1045E0001A447B685B689B00B2FBF3F3224AA2FB90
:1045F00003235B091901FA6813469B0013449A00D0
:104600001A447B685B689B00B2FBF3F21A4BA3FB76
:1046100002035B09642000FB03F3D31A1B0132334E
:10462000154AA2FB03235B0903F0F0031944FA685F
:1046300013469B0013449A001A447B685B689B00F6
:10464000B2FBF3F20C4BA3FB02035B09642000FBFB
:1046500003F3D31A1B013233074AA2FB03235B097E
:1046600003F00F027B681B680A449A6000BF103792
:10467000BD4680BD003801401F85EB51002B2DE960
:10468000F0471D46BBBF03F100431D4600232D2309
:1046900088B01446B8BF1446129A109E1370149B2B
:1046A000DDF84CA023F02008B8F1460F05D0B8F192
:1046B000450F00D10136022300E0032307AA04922C
:1046C00006AACDE902A2CDE9003622462B4600F02B
:1046D0006FFEB8F1470F074619D1119BDB070ED5C6
:1046E00000EB06090022002320462946FCF766F964
:1046F00008B1CDF81C903022079B4B451ED338469D
:10470000079B159ADB1B136008B0BDE8F087B8F172
:10471000460F00EB0609E5D10378302B0AD10022C1
:10472000002320462946FCF749F918B9C6F10106CD
:10473000CAF80060DAF800309944D3E7591C0791B1
:104740001A70D9E7F7B50029B6BF2D232B234942AC
:1047500009290270437029DD0DF107031D460A2760
:10476000B1FBF7F61A4607FB1614303402F8014C79
:104770000C46632C314603F1FF33F1DC3031941EDB
:1047800003F8011C2346411CAB420AD30DF1090377
:104790009B1AAC4288BF002302330344181A03B0AB
:1047A000F0BD13F8016B01F8016FEDE730233031F4
:1047B0008370C170031DF1E72DE9F04F91B00C46F5
:1047C000DDF8688016461F46054600F0E1FC0368E8
:1047D00018460893FBF7C6FC00230E93D8F8003068
:1047E0000990073323F0070303F1080294F818A097
:1047F000D4F800B0C8F80020D3E9008929F00043BC
:104800000B93CDF828804FF0FF32DDE90A01C4E9AF
:1048100012899C4BFCF704F970BBDDE90A014FF0EB
:10482000FF32984BFCF7DEF830BB002200234046F5
:104830004946FCF7CDF810B12D2384F84330924A55
:10484000924BBAF1470F94BF9046984603234FF01E
:10485000000923612BF004032360334621462846D8
:1048600000970FAA00F0D4F9013040F090804FF08B
:10487000FF3011B0BDE8F08F42464B4640464946F6
:10488000FCF7CEF848B14B46002BB8BF2D23804A29
:10489000B8BF84F843307F4BD3E763680AF0DF0189
:1048A0005A1C3FD10623636000224BF480632360CF
:1048B00006920EAACDE904A20DAA03920DF13302CD
:1048C000CDE9013263684246009328464B460A917F
:1048D000FFF7D4FE0A99804647290D9928D1C81CB4
:1048E00002DB6368994240DDAAF1020A5FFA8AFAA4
:1048F0005246013904F150000D91FFF723FF0E9A43
:1049000081461318012A236102DC2268D20701D5EF
:10491000013323619DF83330002B9ED02D2384F882
:1049200043309AE74729BFD1002BBDD10123BAE715
:10493000BAF1650FDCD9BAF1660F18D100296368A6
:104940000BDD216113B92268D00702D501330B4476
:1049500023614FF00009A165DCE713B92268D20793
:1049600001D50233F4E70123F2E74FF0670A0E9B0B
:10497000994205DB23682161D807EAD54B1CE7E79C
:104980000029CCBF0122C1F102021344E0E72368F1
:104990005A0507D42369424631462846B8470130B4
:1049A0002BD164E7BAF1650F40F2DC80D4E9120143
:1049B00000220023FCF702F8002833D001233146FF
:1049C0002846354AB84701303FF451AFDDE90D388C
:1049D000434502DB2368D8070FD5DDE908233146BC
:1049E0002846B84701303FF442AF4FF0000908F1C4
:1049F000FF3804F11A0AC84509DC23689B0700F157
:104A00000281E0680F9B9842B8BF184631E7012346
:104A1000524631462846B84701303FF428AF09F1E5
:104A20000109E8E70D9B002B38DC012331462846BD
:104A3000194AB84701303FF41AAFDDE90D3959EA98
:104A4000030302D12368D907D7D5DDE9082331460E
:104A50002846B84701303FF40AAF4FF0000A04F18E
:104A60001A0B0D9B5B42534501DC4B4693E7012338
:104A70005A4631462846B84701303FF4F8AE0AF1AD
:104A8000010AEEE7FFFFEF7F8E73000892730008C4
:104A9000967300089A7300089E730008A36DDDF8F2
:104AA00038A05345A8BF5346002B994636DC4FF03B
:104AB000000B29EAE97904F11A02A36D0A93A3EB2A
:104AC00009035B4531DC0D9B9A453ADC2368DA0724
:104AD00037D40D9BAAEB03090A9BAAEB0303994564
:104AE000A8BF9946B9F1000F33DC4FF0000829EA5E
:104AF000E97904F11A0B0D9BAAEB0303A3EB09035D
:104B000043457FF77AAF01235A4631462846B847D6
:104B100001303FF4ACAE08F10108ECE74246314603
:104B20002846B8470130C2D1A1E6012331462846C4
:104B30000A92B84701303FF49AAE0A9A0BF1010B82
:104B4000BBE73146DDE908232846B8470130C0D12C
:104B50008DE60A9A4B46314628464244B847013012
:104B6000C3D184E6DDF838A0BAF1010F01DCDB0720
:104B700036D50123424631462846B84701303FF436
:104B800076AEDDE9082331462846B84701303FF4C8
:104B90006EAED4E91201002200230AF1FF3AFBF7BE
:104BA0000DFFC0B9534608F1010231462846B84707
:104BB00001300CD15BE601235A4631462846B847FE
:104BC00001303FF454AE08F10108D045F3DB4B4609
:104BD00004F15002E0E64FF0000804F11A0BF4E78C
:104BE00001234246E1E701234A4631462846B847B9
:104BF00001303FF43CAE08F10108E3680F995B1AFD
:104C00004345F0DCFDE64FF0000804F11909F4E734
:104C10002DE9F047164698468A680B690746934285
:104C2000B8BF1346336091F843200C46DDF820905E
:104C30000AB1013333602368990642BF33680233F7
:104C40003360256815F0060506D104F1190AE368FA
:104C500032689B1AAB422BDC94F843302268003B4D
:104C600018BF0123920630D44146384604F143026E
:104C7000C847013023D02368226903F00603042BC0
:104C800014BF002533684FF0000608BFE56804F143
:104C90001A0408BFED1A54F8123C08BF25EAE5755E
:104CA0009342C4BF9B1AED18B5421AD1002008E008
:104CB0000123524641463846C847013003D14FF0E0
:104CC000FF30BDE8F0870135C1E73020E11881F8F9
:104CD00043005A1C94F845102244023382F84310D2
:104CE000C2E70123224641463846C8470130E6D094
:104CF0000136D9E72DE9FF470F7E9146782F804690
:104D00000C469A460C9E01F1430207D8622F0AD83E
:104D1000002F00F0D380582F00F0BA8004F1420633
:104D200084F842703AE0A7F16303152BF6D801A18D
:104D300051F823F08D4D0008A14D00081D4D0008CD
:104D40001D4D00081D4D00081D4D0008A14D000817
:104D50001D4D00081D4D00081D4D00081D4D00088B
:104D6000A34E0008CB4D00085D4E00081D4D000805
:104D70001D4D0008C54E00081D4D0008CB4D000814
:104D80001D4D00081D4D0008654E000833681A1DB2
:104D90001B68326004F1420684F8423001239EE031
:104DA00033682068191D3160060601D51D6803E0CF
:104DB0004506FBD5B3F90050002D03DA2D236D42D3
:104DC00084F843300A23594811E021683368080603
:104DD00053F8045B02D4490648BFADB26F2F33606D
:104DE00014BF0A2308235148002184F84310666841
:104DF000002EA8BF2168A660A4BF21F00401216095
:104E00000DB9002E4BD01646B5FBF3F103FB11573D
:104E1000C75D06F8017D2F46BB420D46F4D9082B2D
:104E20000BD12368DF0708D5236961689942DEBF8B
:104E3000302306F8013C06F1FF36921B22614B46F7
:104E400021464046CDF800A003AAFFF7E1FE01305D
:104E50004AD14FF0FF3004B0BDE8F087236843F03B
:104E6000200323607827324884F84570236831682E
:104E70001F0651F8045B02D45F0648BFADB2316033
:104E8000D90744BF43F0200323601DB11023ABE7D3
:104E90002648E9E7236823F020032360F6E7164657
:104EA000BDE733682568181D616930602E061B68F0
:104EB00001D5196002E06806FBD51980002316466B
:104EC0002361BCE7336800211A1D32601E686268E6
:104ED000304600F0D4F908B1801B6060636823613C
:104EE000002384F84330AAE7324649464046236906
:104EF000D0470130ADD023689B0713D4E068039BF3
:104F00009842B8BF1846A6E70123324649464046B4
:104F1000D04701309DD00135E36803995B1AAB425D
:104F2000F2DCEBE7002504F11906F5E7A0730008B1
:104F3000B1730008002310B50446C0E90033C0E98E
:104F40000433836081814366C281836119460822EC
:104F50005C3000F014F90D4B246263620C4BA362C9
:104F60000C4BE3620C4B23630C4B9C4206D003F1C9
:104F70006802944202D0D0339C4205D104F158001B
:104F8000BDE8104000F078B910BD00BFF95000082E
:104F90001B5100085351000877510008D00400202D
:104FA000024A0349034800F069B800BF0C00002022
:104FB000ED6B00081C00002041680C4B10B59942B5
:104FC000044601D001F012FEA168094B994202D0BB
:104FD000204601F00BFEE168064B994204D02046C2
:104FE000BDE8104001F002BE10BD00BFD00400209B
:104FF00038050020A005002010B50B4B0B4C0C4AC7
:1050000020461A6004210022FFF794FF04F1680093
:1050100001220921FFF78EFF04F1D0000222BDE832
:1050200010401221FFF786BF08060020D0040020A0
:10503000A14F0008014800F020B900BF1106002070
:10504000014800F01BB900BF1106002010B504464E
:10505000FFF7F0FF236A1BB1BDE81040FFF7F0BF78
:10506000044B2362044B1B68002BF5D1FFF7C4FFF0
:10507000F2E700BFB94F0008080600202DE9F84309
:105080000746884614460026D4E90195B9F101097E
:1050900005D52468002CF7D13046BDE8F883AB89EC
:1050A000012B07D9B5F90E30013303D02946384614
:1050B000C04706436835E9E70EB46FF0004100B51C
:1050C0009CB01DAB029006900791049108480949D5
:1050D00053F8042B0591006802A9019301F00AFC22
:1050E0000022029B1A701CB05DF804EB03B07047FD
:1050F000180000200802FFFF10B50C46B1F90E1091
:1051000000F06CF80028ABBF636DA3891B1823F473
:105110008053ACBF6365A38110BD2DE9F0411F46EC
:105120008B890546DB050C46164605D50223002271
:10513000B1F90E1000F040F8A389324623F48053F1
:10514000A38128463B46B4F90E10BDE8F04100F0BB
:1051500057B810B50C46B1F90E1000F02DF8431CED
:10516000A38915BF606523F4805343F48053A38162
:1051700018BFA38110BDB1F90E1000F00DB80346A1
:105180000244934200D1704703F8011BF9E7000085
:10519000004870475801002038B50023054D0446EB
:1051A00008462B60FCF76BFB431C02D12B6803B154
:1051B000236038BD0C06002038B504460846114669
:1051C0000022054D2A601A46FCF77DFB431C02D1E4
:1051D0002B6803B1236038BD0C06002038B50446A7
:1051E000084611460022054D2A601A46FCF70EFBC0
:1051F000431C02D12B6803B1236038BD0C0600208C
:1052000038B50446084611460022054D2A601A4664
:10521000FCF719FB431C02D12B6803B1236038BD96
:105220000C060020014B1868704700BF18000020D2
:1052300070B500260C4D0D4C641BA410A64209D17C
:1052400002F070F800260A4D0A4C641BA410A64216
:1052500005D170BD55F8043B98470136EEE755F887
:10526000043B98470136F2E7087700080877000802
:10527000087700080C7700087047704770470346AE
:1052800010B5C9B202449342184601D1002003E090
:10529000047801338C42F6D110BD2DE9F74F036934
:1052A0000C690746A3427EDB013CA30000F1140514
:1052B00001F11408009305EB8403019358F824309E
:1052C00055F8242001339A42B2FBF3F608EB840927
:1052D0002ED34FF0000AC446AE46D3465CF8043BDA
:1052E00098B206FB00A01B0C020C06FB0323DEF8A1
:1052F000002080B292B2121A5A44DEF800004FEA3F
:10530000134A9BB2C3EB224303EB104392B242EA2F
:105310000342E1454FEA234B4EF8042BDED2009BBB
:10532000EB582BB9019B043B9D421A462FD33C619D
:10533000384601F07BF9002825DB2946002058F883
:10534000042BD1F800C01FFA82FE1FFA8CF3A3EBE6
:105350000E030344120CC2EB234202EB1C429BB22D
:1053600043EA0243C1454FEA224041F8043BE6D2FA
:1053700055F8242005EB840322B9043B9D421A46CC
:105380000BD33C610136304603B0BDE8F08F1268A4
:10539000043B002ACBD1013CC6E71268043B002A3B
:1053A000EFD1013CEAE70020EEE70000000000003A
:1053B0002DE9F04F14461D46C76997B08346CDE9E5
:1053C0000245239E7FB9102000F002FE0246CBF872
:1053D0001C0020B9EF21A84BA84801F067FCC0E9E8
:1053E00001770760C760DBF81C30196859B15A684B
:1053F000012393404A608B60584600F0DFFE002294
:10540000DBF81C301A602B1EAFBF0023012223F0F3
:1054100000430393A8BF3360DDF80C80984BB8BFFE
:10542000326033EA080312D142F20F73229A1360FA
:10543000C8F31303234300F05085249BDFF844A2F4
:10544000002B00F052850AF1030300F04CBDDDE9AA
:105450000223CDE90C23DDE90C0100220023FBF738
:10546000ADFA074658B10123229A1360249B13B169
:10547000854B249A1360DFF814A200F036BD14ABFC
:10548000019315AB00935846DDE90C2301F07EF93A
:10549000C8F30A568146002E77D0DDE90C010D9B3A
:1054A000A6F2FF36C3F3130343F07F5343F44013D4
:1054B000129719460022764BFAF760FE68A3D3E9EB
:1054C0000023FBF713F868A3D3E90023FAF758FE8B
:1054D000044630460D46FAF79FFF65A3D3E9002343
:1054E000FBF704F802460B4620462946FAF748FE29
:1054F00004460D46FBF7AAFA002207460023204681
:105500002946FBF765FA40B13846FAF785FF22468F
:105510002B46FBF753FA00B9013F162F53D8DDE9AC
:105520000C015C4B03EBC703D3E90023FBF750FAF4
:1055300000284AD00023013F0F93149B9B1B5A1E47
:1055400046BFC3F1010800234FF00008099248BF8D
:105550000993002F3BDB099B0E973B4409930023E3
:105560000A93209B092B66D8052BC4BF043B2093CC
:10557000209BC8BF0024A3F10203D8BF0124032B42
:1055800064D8DFE803F02B383656DDE914631E4497
:1055900006F23243202BC1BFC3F1400308FA03F8DF
:1055A00006F2124324FA03F3D6BFC3F1200348EAFC
:1055B000030004FA03F0FAF71FFF0122A1F1F873C8
:1055C000013E129275E70123B6E70F90B5E77B42E3
:1055D0000A930023A8EB07080E93C2E700230B935E
:1055E000219B002B35DC01231A46CDE9073321929C
:1055F0000BE00123F3E700230B93219BFB18089397
:105600000133012B0793B8BF012300210422DBF8EB
:105610001C0002F114059D421FD94160584600F05C
:105620008DFD8246002839D1024640F2AF111A4B57
:10563000D2E60123E0E7012400230B9420934FF0EE
:10564000FF330022CDE907331223D0E701230B9368
:10565000F5E7219BCDE90733D7E701315200D8E7C1
:1056600061436F63A787D23FB3C8608B288AC63F68
:10567000FB799F501344D33FCF730008E6730008B3
:105680000000F07FCB7300089F7300089E73000832
:105690000000F83FE07400083E740008DBF81C309E
:1056A0001860079B0E2B00F2A480002C00F0A18054
:1056B000002F33DD864B07F00F0203EBC203F80522
:1056C000D3E90034CDE904344FEA271416D5DDE9D7
:1056D0000C01804B0326D3E90823FBF731F8CDE911
:1056E000020104F00F047B4D54B9DDE90423DDE928
:1056F0000201FBF725F8CDE9020128E00226F2E7D6
:10570000E10708D5DDE90401D5E90023FAF7EEFE4B
:10571000CDE90401013664100835E5E700F0D280D8
:10572000DDE90C017C426A4B04F00F0203EBC2037B
:10573000D3E90023FAF7DAFE02260023CDE90201BD
:10574000644D2411002C40F0B280002BD3D1DDE950
:1057500002450F9B002B00F0B7800022204629460F
:105760005D4BFBF735F9002800F0AE80079B002B5E
:1057700000F0AA80089B002B37DD7B1E2046049397
:1057800000222946554BFAF7B1FECDE90201089CEB
:1057900001363046FAF740FEDDE90223FAF7A6FEAD
:1057A00000224F4BFAF7ECFC0546A1F15076002C95
:1057B00040F09A80DDE9020100224A4BFAF7DEFC54
:1057C00002460B46CDE902232A463346FBF71EF973
:1057D000002840F08E82DDE902012A4606F10043EE
:1057E000FBF7F6F8002840F02781DDE90C34CDE91D
:1057F0000234159B002BC0F263810E2F00F36081F1
:10580000334B03EBC703D3E90034CDE90434219BC8
:10581000002B03DA079B002B40F30081DDE90245F2
:105820005646DDE9042320462946FAF789FFFBF7AF
:105830000DF98046FAF7F0FDDDE90423FAF756FE8C
:1058400002460B4620462946FAF798FC08F1300438
:10585000079D06F8014BA6EB0A04A54202460B463B
:1058600040F01681FAF78CFCDDE9042304460D466E
:10587000FBF7CCF8002840F0F880DDE9042320464F
:105880002946FBF79BF818B118F0010F40F0ED80A6
:105890004946584600F092FC00233370229B0137A2
:1058A0001F60249B002B00F020831E601DE3E20795
:1058B00005D5D5E90023FAF719FE01230136641056
:1058C00008353FE7022642E7079C049761E700BFDF
:1058D000E0740008B87400080000F03F00002440A5
:1058E00000001C4000001440704B0B9903EBC403F4
:1058F00053E902235444002945D000206C49FAF7AB
:105900001FFF33462A46FAF739FC5646CDE9100107
:10591000DDE90201FBF79AF80546FAF77DFD02463C
:105920000B46DDE90201FAF729FC02460B46303549
:10593000CDE90223DDE9102306F8015BFBF748F807
:10594000002863D1DDE9022300205A49FAF716FC4A
:10595000DDE91023FBF73CF8002840F08780A642E1
:105960003FF443AFDDE910010022534BFAF7BEFDCF
:105970000022CDE91001DDE902014F4BFAF7B6FD37
:10598000CDE90201C4E731462846FAF7AFFD564695
:10599000CDE910011394DDE90201FBF757F8054644
:1059A000FAF73AFD02460B46DDE90201FAF7E6FB9B
:1059B00002460B46303506F8015BA642CDE90223CC
:1059C0004FF0000224D1DDE91001394BFAF7D8FB82
:1059D00002460B46DDE90201FBF718F8002845D125
:1059E000DDE9102300203249FAF7C8FB02460B46D6
:1059F000DDE90201FAF7ECFF00283FF4F6AE139E52
:105A0000731E139316F8013C302BF8D0049F3FE728
:105A1000294BFAF76BFDCDE90201BCE70CD1DDE9BA
:105A200004010022254BFAF761FDDDE90223FAF7B4
:105A3000E3FF002800F05B8100242546219B5646A9
:105A4000DB43049300272146584600F0B7FB002DA6
:105A5000DCD02FB1AF4203D03946584600F0AEFB40
:105A60002946584600F0AAFBD0E7049733461E4665
:105A700013F8012D392A07D19A45F8D1049A013239
:105A8000049230228AF800201A7801321A70BDE799
:105A90000022094BFAF72AFD0022002304460D4696
:105AA000FAF78CFF00283FF4BCAEF1E6E074000882
:105AB0000000E03F0000F03F0000244000001440E0
:105AC0000B9A002A00F0DB80209A012A00F3BF80A5
:105AD000129A002A00F0B78003F2334346460A9C2C
